:03000000020552A4
:0C055200787FE4F6D8FD75811502050ED7
:1004EB00202020204A696D6D79546F6C75656E659F
:1004FB0020697320746865206661746865722020BA
:03050B00202000AD
:10050E0012053F1204C67BFF7A0479EB12052AAD61
:0C051E00077BFF7A0479EB1203C580EA2A
:10053F0043920143910143B2CC43B1CC5392F9534F
:03054F0091F922FD
:1004C600D292C291E4F508F509120567C2921205A7
:1004D60067D2920509E50970020508C3941CE50870
:0404E600940040E559
:0104EA0022EF
:100003008B118A12891390000312044175F005A421
:10001300244FF582E5F03401120494AB11AA12A91E
:100023001390000212044175F005A4244FF582E5F4
:10003300F03401120494AB11AA12A9139000011217
:10004300044175F005A4244FF582E5F03401120450
:1000530094AB11AA12A91312042875F005A4244F16
:10006300F582E5F03401120494C29012055ED29039
:1000730090000312047F90000212047FAB11AA12B6
:10008300A913900001120485AB11AA12A91312043B
:1000930028120488C2B712055ED2B7AB11AA12A9FF
:1000A3001390000312044175F005A42451F582E571
:1000B300F03401120494AB11AA12A9139000021296
:1000C300044175F005A42451F582E5F034011204CE
:1000D30094AB11AA12A91390000112044175F00503
:1000E300A42451F582E5F03401120494AB11AA1251
:1000F300A91312042875F005A42451F582E5F03400
:1001030001120494C2B612055ED2B6AB11AA12A9AB
:100113001390000312044175F005A42452F582E5FF
:10012300F03401120494AB11AA12A9139000021225
:10013300044175F005A42452F582E5F0340112045C
:1001430094AB11AA12A91390000112044175F00592
:10015300A42452F582E5F03401120494AB11AA12DF
:10016300A91312042875F005A42452F582E5F0348E
:1001730001120494C2B312055ED2B3AB11AA12A941
:100183001390000312044175F005A42453F582E58E
:10019300F03401120494AB11AA12A91390000212B5
:1001A300044175F005A42453F582E5F034011204EB
:1001B30094AB11AA12A91390000112044175F00522
:1001C300A42453F582E5F03401120494AB11AA126E
:1001D300A91312042875F005A42453F582E5F0341D
:0C01E30001120494C2B212055ED2B222D6
:0803C5008B088A09890A8D0BDF
:1003CD00E4F50CE50B24FCFFE50CC39F504CE4F564
:1003DD0010F50FF50EF50DE47F96FEFDFCAB10AAA2
:1003ED000FA90EA80DC312046E5020AB08AA09A9BF
:1003FD000A120003E5102401F510E4350FF50FE4A2
:10040D00350EF50EE4350DF50D80CC7401250AF58C
:0A041D000AE43509F509050C80A971
:0104270022B2
:10047F00AB11AA12A91312044175F005A42450F56B
:0A048F0082E5F03401F583E493FFE9
:020499008F14BE
:10049B00D292E4F515C3E515940774809480501A35
:1004AB00E514A2E69291120567C292120567D292E9
:0A04BB00E51425E0F514051580DBBB
:0104C5002214
:08055E007F127E02DEFEDFFCCD
:010566002272
:05056700007F06DFFE2D
:01056C00226C
:1001EF00000000000000005F00000007000700147F
:1001FF007F147F14242A7F2A12231308646236493E
:10020F005522500005030000001C2241000041222E
:10021F001C00082A1C2A0808083E08080050300055
:10022F000008080808080060600000201008040299
:10023F003E5149453E00427F4000426151494621AF
:10024F0041454B311814127F1027454545393C4A1B
:10025F00494930017109050336494949360649496B
:10026F00291E003636000000563600000008142202
:10027F0041141414141441221408000201510906E8
:10028F00324979413E7E1111117E7F494949363EEF
:10029F00414141227F4141221C7F494949417F0908
:1002AF000901013E414151327F0808087F00417F1B
:1002BF0041002040413F017F081422417F404040D0
:1002CF00407F0204027F7F0408107F3E4141413E80
:1002DF007F090909063E4151215E7F0919294646CA
:1002EF004949493101017F01013F4040403F1F20F3
:1002FF0040201F7F2018207F6314081463030478A5
:10030F000403615149454300007F41410204081035
:10031F002041417F00000402010204404040404060
:10032F00000102040020545454787F484444383864
:10033F0044444420384444487F3854545418087E69
:10034F00090102081454543C7F0804047800447DCA
:10035F0040002040443D00007F10284400417F4072
:10036F00007C041804787C0804047838444444382A
:10037F007C14141408081414187C7C08040408480E
:10038F0054545420043F4440203C4040207C1C20C7
:10039F0040201C3C4030403C44281028440C505016
:1003AF00503C4464544C44000836410000007F0028
:0603BF00000041360800B9
:10042800BB010689828A83E0225002E722BBFE02D2
:09043800E32289828A83E4932205
:10044100BB010CE58229F582E5833AF583E0225070
:1004510006E92582F8E622BBFE06E92582F8E222BA
:0D046100E58229F582E5833AF583E49322D4
:10046E00EB9FF5F0EA9E42F0E99D42F0E89C45F0E4
:01047E00225B
:10052A00E4FFFE120428600C0FEF70010E09E97057
:05053A00F20A80EF222F
:00000001FF
